:020000040800F2
:10000000008001208D2E0008F52B0008FD2B000834
:10001000052C00080D2C0008152C0008000000001D
:100020000000000000000000000000001D2C00087F
:100030002B2C000800000000392C0008472C000879
:10004000DD2E0008DD2E0008DD2E0008DD2E000864
:10005000DD2E0008DD2E0008532C0008612C00085E
:10006000DD2E0008DD2E0008DD2E0008DD2E000844
:10007000DD2E0008DD2E0008DD2E0008DD2E000834
:10008000DD2E0008DD2E0008DD2E00080000000037
:100090000000000000000000000000006F2C0008BD
:1000A000DD2E0008DD2E0008DD2E0008DD2E000804
:1000B000DD2E00087D2C0008912C0008DD2E0008A4
:1000C000DD2E0008DD2E0008DD2E0008DD2E0008E4
:1000D000DD2E0008DD2E0008A52C00080000000021
:1000E000B92C0008DD2E0008DD2E000800000000FD
:1000F000000000000000000000000000DD2E0008ED
:1001000000000000DD2E0008C92C0008DD2E0008CC
:1001100000000000000000000000000000000000DF
:10012000DD2E0008DD2E0008DD2E0008DD2E000883
:10013000DD2E0008000000000000000000000000AC
:10014000000000000000000000000000DD2E00089C
:10015000DD2E0008DD2E0008DD2E0008DD2E000853
:10016000DD2E0008DD2E0008000000000000000069
:10017000000000000000000000000000000000007F
:1001800000000000DD2E000800000000000000005C
:04019000DD2E000858
:1001A00010B5054C237833B9044B13B10448AFF3B1
:1001B00000800123237010BDF80100200000000022
:1001C0001CA6000808B5034B1BB103490348AFF355
:1001D000008008BD00000000FC0100201CA60008F3
:1001E00001F0FF01102A2BDB10F0070F08D010F8E8
:1001F000013B013A8B422DD010F0070F42B3F6D1EC
:10020000F0B441EA012141EA014122F007047FF004
:1002100000070023F0E80256083C85EA010586EA5B
:10022000010685FA47F5A3FA87F586FA47F6A5FA97
:1002300087F68EB9EED1F0BC01F0FF0102F00702A3
:1002400032B110F8013B013A83EA010313B1F8D14E
:100250000020704701387047002D06BF354603382F
:10026000073815F0010F07D1013015F4807F02BF68
:10027000013015F4C03F0130F0BC0138704700BFB9
:10028000034613F8012B002AFBD1181A01387047D6
:1002900081F0004102E000BF83F0004330B54FEA37
:1002A00041044FEA430594EA050F08BF90EA020FA4
:1002B0001FBF54EA000C55EA020C7FEA645C7FEA37
:1002C000655C00F0E2804FEA5454D4EB5555B8BF5A
:1002D0006D420CDD2C4480EA020281EA030382EACB
:1002E000000083EA010180EA020281EA0303362D5D
:1002F00088BF30BD11F0004F4FEA01314FF4801C30
:100300004CEA113102D0404261EB410113F0004F41
:100310004FEA03334CEA133302D0524263EB4303F8
:1003200094EA050F00F0A780A4F10104D5F1200E96
:100330000DDB02FA0EFC22FA05F2801841F10001F1
:1003400003FA0EF2801843FA05F359410EE0A5F1C5
:1003500020050EF1200E012A03FA0EFC28BF4CF0F6
:10036000020C43FA05F3C01851EBE37101F00045AC
:1003700007D54FF0000EDCF1000C7EEB00006EEBB9
:100380000101B1F5801F1BD3B1F5001F0CD3490843
:100390005FEA30004FEA3C0C04F101044FEA44529A
:1003A00012F5800F80F09A80BCF1004F08BF5FEA21
:1003B000500C50F1000041EB045141EA050130BD01
:1003C0005FEA4C0C404141EB0101013C28BFB1F513
:1003D000801FE9D291F0000F04BF01460020B1FA5E
:1003E00081F308BF2033A3F10B03B3F120020CDA31
:1003F0000C3208DD02F1140CC2F10C0201FA0CF00F
:1004000021FA02F10CE002F11402D8BFC2F1200C73
:1004100001FA02F120FA0CFCDCBF41EA0C01904029
:10042000E41AA2BF01EB0451294330BD6FEA040472
:100430001F3C1CDA0C340EDC04F11404C4F120025D
:1004400020FA04F001FA02F340EA030021FA04F36F
:1004500045EA030130BDC4F10C04C4F1200220FAC6
:1004600002F001FA04F340EA0300294630BD21FA04
:1004700004F0294630BD94F0000F83F4801306BFCA
:1004800081F480110134013D4EE77FEA645C18BFBE
:100490007FEA655C29D094EA050F08BF90EA020F55
:1004A00005D054EA000C04BF1946104630BD91EA4D
:1004B000030F1EBF0021002030BD5FEA545C05D150
:1004C0004000494128BF41F0004130BD14F580048F
:1004D0003CBF01F5801130BD01F0004545F0FE4103
:1004E00041F470014FF0000030BD7FEA645C1ABF38
:1004F000194610467FEA655C1CBF0B46024650EA6F
:10050000013406BF52EA033591EA030F41F400219A
:1005100030BD00BF90F0000F04BF0021704730B520
:100520004FF4806404F132044FF000054FF00001F5
:1005300050E700BF90F0000F04BF0021704730B5B6
:100540004FF4806404F1320410F0004548BF40428B
:100550004FF000013EE700BF42004FEAE2014FEAE0
:1005600031014FEA02701FBF12F07F4393F07F4FBB
:1005700081F06051704732F07F4208BF704793F0BE
:100580007F4F04BF41F40021704730B54FF46074D1
:1005900001F0004521F000411CE700BF50EA0102D4
:1005A00008BF704730B54FF000050AE050EA01027D
:1005B00008BF704730B511F0004502D5404261EBED
:1005C00041014FF4806404F132045FEA915C3FF42E
:1005D000D8AE4FF003025FEADC0C18BF03325FEACB
:1005E000DC0C18BF033202EBDC02C2F1200300FA7C
:1005F00003FC20FA02F001FA03FE40EA0E0021FAA1
:1006000002F11444BDE600BF70B54FF0FF0C4CF48E
:10061000E06C1CEA11541DBF1CEA135594EA0C0F40
:1006200095EA0C0F00F0DEF82C4481EA030621EA7B
:100630004C5123EA4C5350EA013518BF52EA0335B6
:1006400041F4801143F4801338D0A0FB02CE4FF068
:100650000005E1FB02E506F00042E0FB03E54FF098
:100660000006E1FB03569CF0000F18BF4EF0010E90
:10067000A4F1FF04B6F5007F64F5407404D25FEA8C
:100680004E0E6D4146EB060642EAC62141EA55513F
:100690004FEAC52040EA5E504FEACE2EB4F1FD0C81
:1006A00088BFBCF5E06F1ED8BEF1004F08BF5FEAFF
:1006B000500E50F1000041EB045170BD06F00046B1
:1006C00046EA010140EA020081EA0301B4EB5C045E
:1006D000C2BFD4EB0C0541EA045170BD41F4801156
:1006E0004FF0000E013C00F3AB8014F1360FDEBF7B
:1006F000002001F0004170BDC4F10004203C35DA57
:100700000C341BDC04F11404C4F1200500FA05F3D9
:1007100020FA04F001FA05F240EA020001F000427A
:1007200021F0004110EBD37021FA04F642EB0601F0
:100730005EEA430E08BF20EAD37070BDC4F10C041A
:10074000C4F1200500FA04F320FA05F001FA04F2DE
:1007500040EA020001F0004110EBD37041F10001CA
:100760005EEA430E08BF20EAD37070BDC4F12005D5
:1007700000FA05F24EEA020E20FA04F301FA05F23D
:1007800043EA020321FA04F001F0004121FA04F2E5
:1007900020EA020000EBD3705EEA430E08BF20EAB5
:1007A000D37070BD94F0000F0FD101F000464000EF
:1007B00041EB010111F4801F08BF013CF7D041EA71
:1007C000060195F0000F18BF704703F00046520075
:1007D00043EB030313F4801F08BF013DF7D043EA46
:1007E0000603704794EA0C0F0CEA135518BF95EAFC
:1007F0000C0F0CD050EA410618BF52EA4306D1D183
:1008000081EA030101F000414FF0000070BD50EAA1
:10081000410606BF1046194652EA430619D094EA2B
:100820000C0F02D150EA013613D195EA0C0F05D115
:1008300052EA03361CBF104619460AD181EA030169
:1008400001F0004141F0FE4141F470014FF0000021
:1008500070BD41F0FE4141F4780170BD70B54FF0BC
:10086000FF0C4CF4E06C1CEA11541DBF1CEA13553C
:1008700094EA0C0F95EA0C0F00F0A7F8A4EB05041E
:1008800081EA030E52EA03354FEA013100F0888015
:100890004FEA03334FF0805545EA131343EA1263DE
:1008A0004FEA022245EA111545EA10654FEA002693
:1008B0000EF000419D4208BF964244F1FD0404F54C
:1008C000407402D25B084FEA3202B61A65EB0305A8
:1008D0005B084FEA32024FF480104FF4002CB6EB65
:1008E000020E75EB030E22BFB61A754640EA0C00E5
:1008F0005B084FEA3202B6EB020E75EB030E22BF25
:10090000B61A754640EA5C005B084FEA3202B6EB65
:10091000020E75EB030E22BFB61A754640EA9C0024
:100920005B084FEA3202B6EB020E75EB030E22BFF4
:10093000B61A754640EADC0055EA060E18D04FEAB2
:10094000051545EA16754FEA06164FEAC30343EA52
:1009500052734FEAC2025FEA1C1CC0D111F4801F1F
:100960000BD141EA00014FF000004FF0004CB6E718
:1009700011F4801F04BF01430020B4F1FD0C88BFB7
:10098000BCF5E06F3FF6AFAEB5EB030C04BFB6EBC2
:10099000020C5FEA500C50F1000041EB045170BDB5
:1009A0000EF0004E4EEA113114EB5C04C2BFD4EBE2
:1009B0000C0541EA045170BD41F480114FF0000E66
:1009C000013C90E645EA060E8DE60CEA135594EAE2
:1009D0000C0F08BF95EA0C0F3FF43BAF94EA0C0FE5
:1009E0000AD150EA01347FF434AF95EA0C0F7FF45A
:1009F00025AF104619462CE795EA0C0F06D152EAAE
:100A000003353FF4FDAE1046194622E750EA410691
:100A100018BF52EA43067FF4C5AE50EA41047FF4A2
:100A20000DAF52EA43057FF4EBAE12E74FF0FF3C07
:100A300006E000BF4FF0010C02E000BF4FF0010CD8
:100A40004DF804CD4FEA410C7FEA6C5C4FEA430C51
:100A500018BF7FEA6C5C1BD001B050EA410C0CBFA0
:100A600052EA430C91EA030F02BF90EA020F002002
:100A7000704710F1000F91EA030F58BF994208BF69
:100A800090422CBFD8176FEAE37040F00100704726
:100A90004FEA410C7FEA6C5C02D150EA013C07D17D
:100AA0004FEA430C7FEA6C5CD6D152EA033CD3D0C8
:100AB0005DF8040B704700BF8446104662468C46C2
:100AC0001946634600E000BF01B5FFF7B7FF0028F5
:100AD00048BF10F1000F01BD4DF808EDFFF7F4FF1E
:100AE0000CBF012000205DF808FB00BF4DF808EDA9
:100AF000FFF7EAFF34BF012000205DF808FB00BFCC
:100B00004DF808EDFFF7E0FF94BF012000205DF8ED
:100B100008FB00BF4DF808EDFFF7CEFF94BF0120A2
:100B200000205DF808FB00BF4DF808EDFFF7C4FF9B
:100B300034BF012000205DF808FB00BF4FEA410CE4
:100B40007FEA6C5C02D150EA013C0AD14FEA430CC7
:100B50007FEA6C5C02D152EA033C02D14FF0000004
:100B600070474FF0010070474FEA410212F5001242
:100B700015D211D56FF47873B3EB625212D94FEAE4
:100B8000C12343F0004343EA505311F0004F23FACE
:100B900002F018BF404270474FF00000704750EA23
:100BA000013005D111F0004008BF6FF000407047E0
:100BB0004FF00000704700BF4FEA4102B2F1E0433E
:100BC00024BFB3F5001CDCF1FE5C0DD901F0004C34
:100BD0004FEAC0024CEA5070B2F1004F40EB830084
:100BE00008BF20F00100704711F0804F21D113F1B0
:100BF0003872BCBF01F00040704741F480114FEAE9
:100C00005252C2F11802C2F1200C10FA0CF320FA71
:100C100002F018BF40F001004FEAC1234FEAD3238E
:100C200003FA0CFC40EA0C0023FA02F34FEA4303F8
:100C3000CCE77FEA625307D150EA01331EBF4FF081
:100C4000FE4040F44000704701F0004040F0FE409C
:100C500040F40000704700BF53B94AB9002908BFEB
:100C600000281CBF4FF0FF314FF0FF3000F06AB991
:100C7000ADF1080C6DE904CE00F006F8DDF804E0F3
:100C8000DDE9022304B070472DE9F047089D0C46CA
:100C9000002B4ED194468C458646B2FA82F262D938
:100CA0004AB1C2F12003914020FA03F30CFA02FC8E
:100CB000194300FA02FE4FEA1C471FFA8CF6B1FBFB
:100CC000F7F44FEA1E4307FB141143EA014304FB08
:100CD00006F199420AD91CEB030304F1FF3080F0BE
:100CE0001281994240F20F81023C6344591A1FFA63
:100CF0008EF3B1FBF7F007FB101143EA014300FB51
:100D000006F69E420AD91CEB030300F1FF3180F086
:100D1000FC809E4240F2F980634402389B1B40EA0B
:100D2000044000211DB1D3400022C5E90032BDE8D6
:100D3000F0878B4205D90DB1C5E9000100210846B5
:100D4000F5E7B3FA83F1002946D1A34202D39042DA
:100D5000C0F0F080861A64EB03030120002DE6D07A
:100D6000C5E90063E3E7002A40F09080A1EB0C04A2
:100D70004FEA1C481FFA8CF70121B4FBF8F64FEA42
:100D80001E4308FB164443EA044307FB06F098425F
:100D900008D91CEB030306F1FF3402D2984200F29B
:100DA000CD8026461C1A1FFA8EF3B4FBF8F008FB20
:100DB000104443EA044300FB07F79F4208D91CEBA9
:100DC000030300F1FF3402D29F4200F2B0802046BC
:100DD000DB1B40EA0640A5E7C1F120068B4022FA62
:100DE00006F71F4320FA06FC04FA01F343EA0C035A
:100DF000F44000FA01F8380C4FEA1349B4FBF0FE56
:100E00001FFA87FC00FB1E4449EA04440EFB0CF960
:100E1000A14502FA01F20AD93C190EF1FF3A80F01D
:100E20008480A14540F28180AEF1020E3C44A4EBE7
:100E300009041FFA83F9B4FBF0F300FB134449EAF9
:100E4000044403FB0CFCA44507D93C1903F1FF3013
:100E500067D2A44565D9023B3C4443EA0E40A0FB5F
:100E60000293A4EB0C049C42CE469C4651D34ED038
:100E700055B1B8EB0E0364EB0C0404FA06F6CB4054
:100E80001E43CC40C5E90064002150E7C2F12003B5
:100E900020FA03F10CFA02FC24FA03F394400C4309
:100EA0004FEA1C4800FA02FE1FFA8CF7B3FBF8F079
:100EB00008FB1031230C43EA014300FB07F1994280
:100EC00008D91CEB030300F1FF362CD299422AD932
:100ED000023863445B1AA4B2B3FBF8F108FB113388
:100EE00044EA034401FB07F3A34208D91CEB0404C2
:100EF00001F1FF3613D2A34211D902396444E41A36
:100F000041EA004139E70446F0E6084606E7C845ED
:100F1000AED2B9EB020E63EB070C0138A8E73146FD
:100F2000EDE7034699E73046D4E7D6467FE76344CA
:100F300002384DE70646234608460FE7023E634463
:100F400030E700BF704700BF80B588B000AF0346F0
:100F5000FB7107F10C0300221A605A609A60DA6094
:100F60001A61FB79002B0ED00423FB6001233B6147
:100F700000237B610223BB6107F10C0319460A4879
:100F800002F0CAFD0BE00423FB6000233B61002359
:100F90007B6107F10C031946034802F0BDFD00BF59
:100FA0002037BD4680BD00BF0004024080B500AFC1
:100FB0000120FFF7C9FF01220421024802F048FF87
:100FC00000BF80BD0004024080B58AB000AF7860E9
:100FD0003960002204216A4802F03AFF4FF47A7027
:100FE00000F070FF01220421654802F031FF142057
:100FF00000F068FF0020FFF7A7FF782000F062FFF5
:1010000000237B6264E0002387F823300023FB6128
:1010100051E001F0CBFF38610FE001F0C7FF02465D
:101020003B69D31A012B08D9FFF7C0FF3B68554A2B
:101030001A607B68534A1A609EE00421504802F00F
:10104000EFFE0346002BE8D01E2000F03BFF0421FA
:101050004B4802F0E5FE0346002B09D097F82330F9
:101060005B005BB243F001035BB287F8233004E01E
:1010700097F823305B0087F8233001F097FF386141
:101080000FE001F093FF02463B69D31A012B08D908
:10109000FFF78CFF3B683B4A1A607B68394A1A604D
:1010A0006AE00421364802F0BBFE0346002BE8D17B
:1010B000FB690133FB61FB69072BAADD07F108021D
:1010C0007B6A134497F823201A707B6A01337B6292
:1010D0007B6A042B97DDFFF769FF3A7A2A4B1A7077
:1010E0007A7A294B5A70BA7A274B9A70FA7A264B39
:1010F000DA703A7B244B1A713B7A1A467B7A134496
:101100009BB2BA7A13449BB2FA7A13447B837B8BEB
:10111000DBB29BB23A7B934202D0FFF747FF2BE052
:10112000194B9B781B021AB2174BDB781BB2134387
:101130001BB23B83144B1B781B021AB2124B5B7819
:101140001BB213431BB2FB823B8B07EE903AB8EE07
:10115000677AF2EE046AC7EE267A7B68C3ED007AFE
:10116000FB8A07EE903AB8EE677AF2EE046AC7EEB1
:10117000267A3B68C3ED007A2837BD4680BD00BFA4
:1011800000040240000080BF1402002080B483B03D
:1011900000AF78607B6807EE903AB8EE677A064B4E
:1011A000D3ED007A67EE277AB0EE670A0C37BD46BA
:1011B0005DF8047B704700BF0000002000000000C5
:1011C000B0B582B000AF87ED010AC7ED000A7868BC
:1011D000FFF7C2F902460B469FED371B43EC102B7D
:1011E00008F0BCFA51EC100B37A3D3E90023FFF74A
:1011F0000BFA02460B4614461D467868FFF7ACF919
:1012000002460B469FED2E1B43EC102B08F0A6FA6E
:1012100051EC100B2EA3D3E90023FFF7F5F902469A
:101220000B4620462946FFF739F802460B4614467E
:101230001D467868FFF790F927A3D3E90023FFF74D
:10124000E3F902460B4620462946FFF725F80246F9
:101250000B461046194622A3D3E90023FFF71EF8D8
:1012600002460B4614461D463868FFF775F91EA363
:10127000D3E90023FFF7C8F902460B46104619468A
:101280001BA3D3E90023FFF707F802460B462046CD
:101290002946FFF701F802460B4610461946FFF7AC
:1012A0008BFC034607EE903AB0EE670A0837BD465E
:1012B000B0BD00BFAFF30080000000000000084098
:1012C000000000000000004074370CDF6DB6C4BEA3
:1012D000B89CD135EB8D3F3FD8F9CDF9AF109C3F8D
:1012E0005BAD72A24301F63F3C132A19F8815F3FC0
:1012F000EBB1F9EC033FB03F80B584B000AF78604C
:101300007868FFF743FF87ED030AF868FFF724F9D1
:1013100002460B464FF000001249FFF79FFA0246C3
:101320000B46104619464FF000020F4BFEF7B4FF74
:1013300002460B4610461946FFF73EFC0346BB60CB
:10134000D7ED027AF5EEC07AF1EE10FA01DDBB6856
:1013500001E04FF0000307EE903AB0EE670A103755
:10136000BD4680BD008040400000244080B52DED8A
:10137000028B84B000AF87ED030AC7ED020A7860E4
:101380007868FFF7B9FFB0EE408AD7ED020A97ED13
:10139000030AFFF715FFF0EE407A88EE277AF0EEA9
:1013A000477AB0EE670A1037BD46BDEC028B80BDB0
:1013B0002DE9B04388B000AF87ED050AC7ED040AF8
:1013C00087ED031AC7ED021A78607868D7ED020A34
:1013D00097ED030AFFF7CAFF10EE103A1846FFF721
:1013E000BBF81DA3D3E90023FFF738FA02460B46EA
:1013F00010461946FFF7E0FB0346FB617869FFF7EB
:10140000ABF804460D46F869FFF7A6F88046894612
:101410003869FFF7A1F802460B4643EC112B49EC63
:10142000108B08F09BF953EC102B20462946FFF750
:10143000EBF802460B4610461946FFF7BDFB034684
:10144000BB61BB6907EE903AB0EE670A2037BD4634
:10145000BDE8B083AFF30080B81E85EB5128534040
:1014600080B584B000AF87ED030AC7ED020A78604B
:101470007868D7ED021A97ED031ADFED110A9FED98
:10148000110AFFF795FF10EE103A1846FFF764F8BF
:1014900009A3D3E90023FEF701FF02460B461046DD
:1014A0001946FFF789FB034607EE903AB0EE670A4C
:1014B0001037BD4680BD00BFAE47E17A14D27840F8
:1014C000022B37C0A4F0DC4280B586B004AF0346DF
:1014D000FB714FF0FF33029301230193FB1D009337
:1014E000012300227821034802F028FE00BF0837BC
:1014F000BD4680BDB807002080B586B004AF7860D7
:1015000039603B689BB24FF0FF32029201937B68D7
:101510000093012340227821034802F00FFE00BF10
:101520000837BD4680BD00BFB807002080B500AFBA
:10153000002000F0DBF92020FFF7C6FF0020FFF7B6
:10154000C3FFB020FFF7C0FFC820FFF7BDFF00209A
:10155000FFF7BAFF1020FFF7B7FF4020FFF7B4FFF7
:10156000FF2000F0AFF9A120FFF7AEFFA620FFF7A4
:10157000ABFFA820FFF7A8FF3F20FFF7A5FFA4209F
:10158000FFF7A2FFD320FFF79FFF0020FFF79CFF8C
:10159000D520FFF799FFF020FFF796FFD920FFF73E
:1015A00093FF2220FFF790FFDA20FFF78DFF122034
:1015B000FFF78AFFDB20FFF787FF2020FFF784FF7C
:1015C0008D20FFF781FF1420FFF77EFF012000F040
:1015D0008DF9002000F010F800F032F8054B0022E1
:1015E0001A80044B00225A80024B01221A7100BF5C
:1015F00080BD00BF1C06002080B485B000AF03464C
:10160000FB710023FB600DE0FB79002B01D1002171
:1016100000E0FF21094AFB6813440A461A70FB6880
:101620000133FB60FB68B3F5806FEDD300BF00BFF3
:101630001437BD465DF8047B704700BF1C020020D4
:1016400080B582B000AF0023FB7116E0FB79503B00
:10165000DBB21846FFF738FF0020FFF735FF1020F8
:10166000FFF732FFFB79DB01084A1344802118465B
:10167000FFF742FFFB790133FB71FB79072BE5D9BB
:1016800000BF00BF0837BD4680BD00BF1C02002060
:1016900080B483B000AF0346FB710B46BB711346A9
:1016A0007B7197F90730002B3DDBBB793F2B3AD894
:1016B0007B79012B1AD1FA79BB79DB08D8B20346C2
:1016C000DB0113441B4AD35C5AB2BB7903F0070316
:1016D000012101FA03F35BB2134359B2FA790346CD
:1016E000DB011344C9B2134AD1541DE0FA79BB7926
:1016F000DB08D8B20346DB0113440E4AD35C5AB26E
:10170000BB7903F00703012101FA03F35BB2DB436A
:101710005BB2134059B2FA790346DB011344C9B2F4
:10172000044AD15400E000BF0C37BD465DF8047B8D
:10173000704700BF1C02002090B589B000AF04467E
:10174000381D80E806001A462346FB731346BB7318
:10175000FB7B1F2B02D9FB7B7E2B01D900236CE086
:10176000384B1B881A463B791344802B06DC354BDB
:101770005B881A467B791344402B01DD00235CE033
:101780000023FB614CE0BA68FB7B203B797901FBCD
:1017900003F31946FB690B445B0013441B887B6110
:1017A0000023BB6134E07A69BB6902FA03F303F4F6
:1017B0000043002B12D0234B1B88DAB2BB69DBB28B
:1017C0001344D8B21F4B5B88DAB2FB69DBB2134417
:1017D000DBB2BA7B1946FFF75BFF16E0194B1B889B
:1017E000DAB2BB69DBB21344D8B2164B5B88DAB20B
:1017F000FB69DBB21344D9B2BB7B002B0CBF0123C6
:101800000023DBB21A46FFF743FFBB690133BB611C
:101810003B791A46BB699342C5D3FB690133FB612F
:101820007B791A46FB699342ADD3064B1B883A7904
:1018300013449AB2034B1A80FB7B18462437BD46EB
:1018400090BD00BF1C06002080B584B000AFF860DA
:10185000381D80E80600FB7012E0FB681878FB7802
:101860003A1D06CAFFF768FF03461A46FB681B7855
:101870009A4202D0FB681B7808E0FB680133FB60EA
:10188000FB681B78002BE8D1FB681B7818461037E3
:10189000BD4680BD80B483B000AF03460A46FB71ED
:1018A0001346BB71FB799AB2054B1A80BB799AB289
:1018B000034B5A8000BF0C37BD465DF8047B704770
:1018C0001C06002080B584B000AF0346FB71812365
:1018D000FB73FB7B1846FFF7F7FDFB791846FFF714
:1018E000F3FD00BF1037BD4680BD000080B584B059
:1018F00000AF0346FB71FB79002B05D0AF23FB73D0
:10190000084B01225A7104E0AE23FB73054B002201
:101910005A71FB7B1846FFF7D7FD00BF1037BD4655
:1019200080BD00BF1C06002080B582B000AF012240
:101930002049214804F01FF9204803F0BFFBFFF7BE
:1019400035FB00F023FC642001F03CFBFFF7EEFDCB
:101950000120FFF751FEFFF773FE4FF47A7001F09C
:1019600031FB00F0BBF94FF4967001F02BFB01F056
:101970001DFB78600EE001F019FB02467B68D31A6C
:1019800047F2305293420BD84FF4FA6001F01AFB41
:1019900000F0A4F90A4B1B78DBB2002BEBD000E07F
:1019A00000BF084803F0E4FB074803F0E1FB00BF79
:1019B000FDE700BF310700202C0900200C080020A3
:1019C0005C0700209C080020E408002080B584B05B
:1019D00000AF87ED010AC7ED000A114801F05AFB7C
:1019E0004FF47A710E4801F03CFC0D4801F0C4FC44
:1019F000F8600B4801F002FCF868D7ED000A97ED9B
:101A0000010AFFF72DFDF0EE407AFCEEE77A17EEC3
:101A1000902A044B1A6000BF1037BD4680BD00BF3E
:101A2000700700203C07002080B582B000AF01F0B5
:101A3000BDFA7860194B1B78012B14D1184B1B6829
:101A40007A68D31A47F22F5293420CD900224FF4EE
:101A50000051144802F0FCF9104B00221A70124A8F
:101A60007B68136017E00D4B1B78002B13D10E4BD6
:101A70001B687A68D31A41F2873293420BD901224C
:101A80004FF40051074802F0E3F9044B01221A70A9
:101A9000034A7B6813600837BD4680BD39070020C4
:101AA00048070020000802404C07002080B500AF26
:101AB00000224FF40051064802F0CAF9054B0022FB
:101AC0001A7001F073FA0346034A136000BF80BD29
:101AD00000080240390700204C07002080B500AF05
:101AE000064B1B686FF001021A61044B1B68002251
:101AF0005A62024803F03CFB00BF80BD540800203E
:101B000080B400AF044B1B6800225A6200BFBD4680
:101B10005DF8047B704700BF5408002080B500AF1B
:101B2000044803F087FB034B1B6800225A6200BF86
:101B300080BD00BF5408002080B500AF09490A48A5
:101B4000FFF742FA084BD3ED007A064B93ED007A8B
:101B5000F0EE470AB0EE670AFFF738FF00F022F90F
:101B600000BF80BD440700204007002080B582B040
:101B700000AF0346FB80FB88B3F5806F24D101F0F2
:101B800015FA02464C4B1B68D31AC72B40F28F80C4
:101B90004A4B1B78002B0CD1484B01221A700122B2
:101BA0004FF40051464802F053F9464B01221A7097
:101BB00004E0424B00221A70FFF778FF01F0F6F9BB
:101BC00003463D4A136072E0FB88022B2AD101F0E4
:101BD000EDF902463C4B1B68D31AC72B67D93B4B28
:101BE00000221A703A4B1B780133DAB2384B1A7064
:101BF000374B1B781E2B38BF1E23DAB2344B1A70BA
:101C0000334B1B785A2B28BF5A23DAB2304B1A7049
:101C100000F0C8F801F0CAF903462B4A136000F03F
:101C20006FF844E0FB88012B2AD101F0BFF902468E
:101C3000284B1B68D31AC72B39D9244B00221A70A2
:101C4000234B1B78013BDAB2214B1A70204B1B78D7
:101C50001E2B38BF1E23DAB21D4B1A701C4B1B788B
:101C60005A2B28BF5A23DAB2194B1A7000F09AF88F
:101C700001F09CF90346174A136000F041F816E0A2
:101C8000FB88802B13D101F091F90246124B1B689F
:101C9000D31AC72B0BD90D4B01221A7000F082F812
:101CA00001F084F903460C4A136000F029F800BFE4
:101CB0000837BD4680BD00BF600700203807002000
:101CC00000080240390700206407002011000020AE
:101CD00010000020680700206C07002080B582B04B
:101CE00000AF43F67323BB80391DC823022203488B
:101CF00003F0AFFE00BF0837BD4680BD2C090020B1
:101D0000F0B589B006AF1E4BD3ED007ABFEE007A76
:101D1000F4EE477AF1EE10FA2ED0194B1B681846F4
:101D2000FEF71AFC04460D46164B1B681846FEF7D4
:101D300013FC02460B46144909681448007806460D
:101D4000134800787860134800780590786804900C
:101D500003960291CDE9002322462B460E490F48F7
:101D600005F0BCFB0D48FEF78BFA03469AB2C82378
:101D70000A490B4803F06DFE00BF0C37BD46F0BDAD
:101D800040070020440700203C07002011000020ED
:101D9000390700201000002038A600083006002077
:101DA0002C09002080B582B000AF1D4B1B78002BA2
:101DB00031D11C4B1B78012B10D11B4BD3ED007A7A
:101DC000B0EE670A00F036F8F0EE407AFCEEE77A03
:101DD000C7ED017A3B79DAB2144B1A70144BD3ED8C
:101DE000007AFDEEE77A17EE903AB3F1FF3F12D09A
:101DF0000E4B1B7807EE903AB8EEE77A0C4BD3ED1A
:101E0000007AB4EEE77AF1EE10FA02DDFFF70CFE8D
:101E100001E0FFF74BFE00BF0837BD4680BD00BFA5
:101E2000380700201100002040070020100000208B
:101E30004407002080B489B000AF87ED010A1D4B34
:101E4000FB614FF08443BB611B4B7B611B4B3B61D0
:101E500097ED017AD7ED077AB4EEE77AF1EE10FA52
:101E600001D83B691CE097ED017AD7ED067AB4EE14
:101E7000E77AF1EE10FA01DB7B6911E097ED017A68
:101E8000D7ED077A37EE677A0D4BD3ED007A67EE20
:101E9000277A97ED047A77EE277AC7ED037AFB6805
:101EA00007EE903AB0EE670A2437BD465DF8047B32
:101EB000704700BF0000A0410000204200007042B7
:101EC000D0AC000880B483B000AF7860084B1B68CA
:101ED00000225A6200BF064B1B685B6A7A689A420E
:101EE000F9D800BF00BF0C37BD465DF8047B7047D2
:101EF0000C08002080B582B000AF78607B681A685B
:101F0000134B1B689A421ED1124B1B78092B0FD81A
:101F1000104B1B781A46104B1978104B99540D4BE7
:101F20001B78002B02D1FFF7D9FD01E0FFF7E8FD98
:101F3000084B1B780133DAB2064B1A7001220649AE
:101F4000034803F018FE00BF0837BD4680BD00BF40
:101F50002C09002030070020310700202406002033
:101F6000B0B584B000AF78607B681B68594A934273
:101F700004D1FFF7D3FD00F0C7F8A7E07B681B682A
:101F8000554A934240F09B80FFF7D6FD01F00EF8D2
:101F9000F860524B1B68FA68D21A514B1B68643BBD
:101FA0009A4278D24F4B93ED007A4F4BD3ED007AA3
:101FB00077EE677AB7EE007AF4EEC77AF1EE10FAB0
:101FC00069DA484B93ED007A474BD3ED007A77EE10
:101FD000677ABFEE007AF4EEC77AF1EE10FA5AD9BA
:101FE000424B93ED007A424BD3ED007A77EE677A5D
:101FF000B7EE007AF4EEC77AF1EE10FA4BDA3B4B0B
:1020000093ED007A3A4BD3ED007A77EE677ABFEE24
:10201000007AF4EEC77AF1EE10FA3CD9354B1B6822
:102020001846FEF777FA04460D46334B1B681846F0
:10203000FEF770FA02460B4620462946FEF72CF9B9
:1020400002460B46104619464FF000022B4BFEF796
:1020500061FD0346002B1ED1264B1B681846FEF778
:1020600059FA04460D46244B1B681846FEF752FAEF
:1020700002460B4620462946FEF70EF902460B465D
:10208000104619464FF000021D4BFEF739FD03467E
:10209000002B00D11AE000F089FF03460F4A1360BD
:1020A000114B1B680F4A1360114B1B680F4A1360DA
:1020B000114B1B680F4A1360FFF722FE06E07B6896
:1020C0001B68104A934201D100F06CF800BF103732
:1020D000BD46B0BD000400400008004034070020A9
:1020E0000C00002050070020440700205407002067
:1020F00040070020580700203C0700200000244033
:10210000000024C0000C004080B500AF184B1B78C5
:10211000062B29D102221749174805F04AFA03462F
:10212000002B21D1144B9A78144B1A70124BDB7888
:102130001B02114A127913434FF47A7202FB03F324
:102140000F4A13600D4B1B78002B03D10A4B5A79B1
:102150000C4B1A700C4B1B78DBB2002B02D10A4BD4
:1021600001221A70FFF71EFE00F010F800BF80BDBC
:10217000300700206CA60008240600201100002073
:102180000C000020100000205C07002080B400AF8D
:10219000034B00221A7000BFBD465DF8047B7047F8
:1021A00030070020B0B588B002AF0020FFF724FA56
:1021B0003D4B1B681846FEF7CFF904460D463B4BD6
:1021C0001B681846FEF7C8F902460B463846CDE9AB
:1021D000002322462B46364905F080F912210220C1
:1021E000FFF758FB334A3846012306CAFFF72CFB9A
:1021F000314B1A683B463149184605F06FF91B21EF
:102200000220FFF747FB2B4A3846012306CAFFF797
:102210001BFB2B4B1B78002B01D02A4A00E02A4ADB
:102220003B462A49184605F059F924210220FFF7B8
:1022300031FB204A3846012306CAFFF705FB244B31
:102240001B78002B01D0234A00E0234A234B1B7844
:10225000002B01D0224B00E0224B3846224905F0EA
:102260003DF92D210220FFF715FB124A38460123C4
:1022700006CAFFF7E9FA1D4B1B781A463B461C4974
:10228000184605F02BF936210220FFF703FB094A17
:102290003846012306CAFFF7D7FAFFF7D1F900BF86
:1022A0001837BD46B0BD00BF4007002044070020DE
:1022B00070A60008040000203C07002084A6000847
:1022C0001100002094A600089CA60008A4A60008FF
:1022D00039070020ACA60008B0A600083807002087
:1022E000B4A60008C0A60008C4A60008100000207C
:1022F000D0A6000880B500AF00F0F2FD00F014F8A1
:1023000000F052FA00F070F800F03AF900F0ECF842
:1023100000F0BCF800F01EFA00F080F900F0CCF9F3
:10232000FFF702FB00BFFDE780B594B000AF07F1F7
:10233000200330220021184605F033F907F10C0381
:1023400000221A605A609A60DA601A610023BB604A
:10235000234B1B6C224A43F080531364204B1B6CAD
:1023600003F08053BB60BB6800237B601D4B1B6880
:1023700023F440431B4A43F400431360194B1B688A
:1023800003F440437B607B6802233B620123FB62D2
:1023900010233B630023BB6307F12003184602F0C0
:1023A000E5F90346002B01D000F0A2FA0F23FB60F1
:1023B00000233B6100237B610023BB610023FB61A1
:1023C00007F10C030021184602F048FC0346002BDD
:1023D00001D000F08DFA00BF5037BD4680BD00BF70
:1023E000003802400070004080B584B000AF3B462A
:1023F00000221A605A609A60DA60214B214A1A6002
:102400001F4B00225A601E4B00229A601C4B002278
:102410001A611B4B00221A76194B002283F82020E8
:10242000174B0022DA62164B174A9A62144B0022AD
:10243000DA60134B0122DA61114B002283F830205D
:102440000F4B01225A610E4800F0E0FD0346002BBD
:1024500001D000F04DFA00233B6001237B60002394
:10246000BB603B461946064800F094FF0346002B2C
:1024700001D000F03DFA00BF1037BD4680BD00BF5F
:1024800070070020002001400100000F80B500AF60
:10249000124B134A1A60114B124A5A600F4B00221A
:1024A0009A600E4B0022DA600C4B4FF480421A61A6
:1024B0000A4B00225A61094B00229A61074B002205
:1024C000DA61064B00221A62044801F0F3FC03466D
:1024D000002B01D000F00CFA00BF80BDB80700202F
:1024E00000540040A086010080B586B000AF07F11F
:1024F000080300221A605A609A60DA603B460022A4
:102500001A605A601D4B4FF080421A601B4B0F221D
:102510005A601A4B00229A60184B4FF0FF32DA6073
:10252000164B00221A61154B00229A61134802F0E3
:1025300075FD0346002B01D000F0DAF94FF480530B
:10254000BB6007F1080319460C4802F0AAFF0346D6
:10255000002B01D000F0CCF900233B6000237B600E
:102560003B461946054803F0A5F90346002B01D068
:1025700000F0BEF900BF1837BD4680BD0C08002032
:1025800080B586B000AF07F1080300221A605A60D8
:102590009A60DA603B4600221A605A601D4B1E4A60
:1025A0001A601C4B40F21F325A601A4B00229A608C
:1025B000184B40F28F12DA60164B00221A61154B4D
:1025C00000229A61134802F029FD0346002B01D036
:1025D00000F08EF94FF48053BB6007F108031946F1
:1025E0000C4802F05EFF0346002B01D000F080F99A
:1025F00000233B6000237B603B461946054803F0FF
:1026000059F90346002B01D000F072F900BF1837CA
:10261000BD4680BD540800200004004080B586B04F
:1026200000AF07F1080300221A605A609A60DA606E
:102630003B4600221A605A601D4B1E4A1A601C4B12
:1026400043F67F625A601A4B00229A60184B41F29F
:102650008732DA60164B00221A61154B00229A610C
:10266000134802F0DBFC0346002B01D000F040F9D8
:102670004FF48053BB6007F1080319460C4802F081
:1026800010FF0346002B01D000F032F900233B601D
:1026900000237B603B461946054803F00BF90346CF
:1026A000002B01D000F024F900BF1837BD4680BDD3
:1026B0009C0800200008004080B586B000AF07F1FC
:1026C000080300221A605A609A60DA603B460022D2
:1026D0001A605A601D4B1E4A1A601C4B9F225A609A
:1026E0001A4B00229A60194B4CF24F32DA60174BAA
:1026F00000221A61154B00229A61144802F08EFCE8
:102700000346002B01D000F0F3F84FF48053BB6078
:1027100007F1080319460D4802F0C3FE0346002BDB
:1027200001D000F0E5F800233B6000237B603B46CE
:102730001946064803F0BEF80346002B01D000F00E
:10274000D7F800BF1837BD4680BD00BFE4080020A1
:10275000000C004080B500AF114B124A1A60104BBC
:102760004FF4E1325A600E4B00229A600C4B00226B
:10277000DA600B4B00221A61094B0C225A61084B9C
:1027800000229A61064B0022DA61054803F014F931
:102790000346002B01D000F0ABF800BF80BD00BFA6
:1027A0002C0900200044004080B588B000AF07F13C
:1027B0000C0300221A605A609A60DA601A610023E2
:1027C000BB60474B1B6B464A43F004031363444B07
:1027D0001B6B03F00403BB60BB6800237B60404BB2
:1027E0001B6B3F4A43F0010313633D4B1B6B03F02C
:1027F00001037B607B6800233B60394B1B6B384ACD
:1028000043F002031363364B1B6B03F002033B6080
:102810003B6800224FF40051324801F019FB0022BE
:102820000421314801F014FB4FF40053FB600123F5
:102830003B6100237B610023BB6107F10C03194658
:10284000284801F069F98023FB604FF404133B61D1
:1028500002237B6107F10C031946244801F05CF95F
:1028600040F20343FB604FF404133B6102237B619E
:1028700007F10C0319461C4801F04EF90423FB60D4
:1028800001233B6100237B610023BB6107F10C0343
:102890001946154801F040F900220421062001F0F4
:1028A00072F8062001F08BF800220421072001F0C5
:1028B0006AF8072001F083F800220421172001F0B4
:1028C00062F8172001F07BF800220421282001F093
:1028D0005AF8282001F073F800BF2037BD4680BDAC
:1028E000003802400008024000040240000002409C
:1028F00080B400AF72B600BF00BFFDE780B483B004
:1029000000AF00237B60104B5B6C0F4A43F48043A5
:1029100053640D4B5B6C03F480437B607B68002346
:102920003B60094B1B6C084A43F080531364064B11
:102930001B6C03F080533B603B6800BF0C37BD4607
:102940005DF8047B704700BF0038024080B58AB054
:1029500000AF786007F1140300221A605A609A6091
:10296000DA601A617B681B68174A934227D10023FB
:102970003B61164B5B6C154A43F480735364134BF5
:102980005B6C03F480733B613B690023FB600F4B7E
:102990001B6B0E4A43F0010313630C4B1B6B03F0DC
:1029A0000103FB60FB6801237B610323BB61002300
:1029B000FB6107F114031946054801F0ADF800BFAB
:1029C0002837BD4680BD00BF0020014000380240CE
:1029D0000000024080B58AB000AF786007F11403B0
:1029E00000221A605A609A60DA601A617B681B687C
:1029F000194A93422BD100233B61184B1B6B174A9A
:102A000043F002031363154B1B6B03F002033B619E
:102A10003B69C0237B611223BB610023FB6103235D
:102A20003B6204237B6207F1140319460C4801F052
:102A300073F80023FB60094B1B6C084A43F4001336
:102A40001364064B1B6C03F40013FB60FB6800BFB0
:102A50002837BD4680BD00BF00540040003802400A
:102A60000004024080B586B000AF78607B681B68C8
:102A7000B3F1804F0ED100237B61324B1B6C314A86
:102A800043F0010313642F4B1B6C03F001037B61C4
:102A90007B6952E07B681B682B4A934216D1002366
:102AA0003B61284B1B6C274A43F002031364254B00
:102AB0001B6C03F002033B613B69002204211D20D3
:102AC00000F061FF1D2000F07AFF36E07B681B6894
:102AD0001E4A934216D10023FB601A4B1B6C194A05
:102AE00043F004031364174B1B6C03F00403FB60F7
:102AF000FB68002204211E2000F045FF1E2000F08C
:102B00005EFF1AE07B681B68114A934215D10023CF
:102B1000BB600C4B1B6C0B4A43F008031364094B5E
:102B20001B6C03F00803BB60BB6800220521322048
:102B300000F029FF322000F042FF00BF1837BD46E9
:102B400080BD00BF00380240000400400008004083
:102B5000000C004080B58AB000AF786007F1140324
:102B600000221A605A609A60DA601A617B681B68FA
:102B70001D4A934233D100233B611C4B1B6C1B4A03
:102B800043F400331364194B1B6C03F400333B61B3
:102B90003B690023FB60154B1B6B144A43F0010398
:102BA0001363124B1B6B03F00103FB60FB680C23E8
:102BB0007B610223BB610023FB6103233B6207238C
:102BC0007B6207F114031946094800F0A5FF0022B3
:102BD0000321262000F0D7FE262000F0F0FE00BFE3
:102BE0002837BD4680BD00BF004400400038024089
:102BF0000000024080B400AF00BFFDE780B400AF2A
:102C000000BFFDE780B400AF00BFFDE780B400AFB8
:102C100000BFFDE780B400AF00BFFDE780B400AFA8
:102C200000BFBD465DF8047B704780B400AF00BFB5
:102C3000BD465DF8047B704780B400AF00BFBD4661
:102C40005DF8047B704780B500AF00F09BF900BFD2
:102C500080BD80B500AF012001F014F900BF80BD38
:102C600080B500AF022001F00DF900BF80BD80B536
:102C700000AF802001F006F900BF80BD80B500AF35
:102C8000024802F006FB00BF80BD00BF54080020D0
:102C900080B500AF024802F0FCFA00BF80BD00BF63
:102CA0009C08002080B500AF024802F095FF00BFED
:102CB00080BD00BF2C09002080B500AF4FF48060BC
:102CC00001F0E0F800BF80BD80B500AF024802F01F
:102CD000E0FA00BF80BD00BFE408002080B400AF70
:102CE00001231846BD465DF8047B704780B582B06D
:102CF00000AF7860396004F0B9FC034616221A6010
:102D00004FF0FF3318460837BD4680BD80B582B00E
:102D100000AF78604FF0FF317868FFF7E7FF00BF42
:102D2000FDE780B586B000AFF860B9607A60002337
:102D30007B610AE0AFF300800146BB685A1CBA60B1
:102D4000CAB21A707B6901337B617A697B689A42E7
:102D5000F0DB7B6818461837BD4680BD80B586B06D
:102D600000AFF860B9607A6000237B6109E0BB685E
:102D70005A1CBA601B781846AFF300807B69013398
:102D80007B617A697B689A42F1DB7B681846183769
:102D9000BD4680BD80B483B000AF78604FF0FF3394
:102DA00018460C37BD465DF8047B704780B483B08D
:102DB00000AF786039603B684FF400525A600023DE
:102DC00018460C37BD465DF8047B704780B483B06D
:102DD00000AF7860012318460C37BD465DF8047BD0
:102DE000704780B485B000AFF860B9607A600023A6
:102DF00018461437BD465DF8047B704780B586B031
:102E000000AF7860144A154BD31A7B617B693B6134
:102E1000134B1B68002B02D1114B124A1A60104B46
:102E20001A687B6813443A699A4207D204F01EFC80
:102E300003460C221A604FF0FF3309E0084B1B6871
:102E4000FB60074B1A687B681344054A1360FB68F4
:102E500018461837BD4680BD0080012000040000E0
:102E600070090020C80A002080B400AF064BD3F8D8
:102E70008830054A43F47003C2F8883000BFBD466D
:102E80005DF8047B704700BF00ED00E0DFF834D050
:102E90000D480E490E4A002302E0D458C4500433B2
:102EA000C4188C42F9D30B4A0B4C002301E0136089
:102EB0000432A242FBD3FFF7D7FF04F0DDFBFFF79C
:102EC00019FA70470080012000000020F80100205E
:102ED000A0B00008F8010020C40A0020FEE70000AE
:102EE00080B500AF0E4B1B680D4A43F400731360AE
:102EF0000B4B1B680A4A43F480631360084B1B6842
:102F0000074A43F480731360032000F031FD002072
:102F100000F008F8FFF7F2FC0023184680BD00BF60
:102F2000003C024080B582B000AF7860124B1A6856
:102F3000124B1B7819464FF47A73B3FBF1F3B2FBD3
:102F4000F3F3184600F049FD0346002B01D001239E
:102F50000EE07B680F2B0AD8002279684FF0FF3013
:102F600000F011FD064A7B681360002300E0012396
:102F700018460837BD4680BD140000201C00002004
:102F80001800002080B400AF064B1B781A46064B91
:102F90001B681344044A136000BFBD465DF8047B00
:102FA000704700BF1C0000207409002080B400AFEF
:102FB000034B1B681846BD465DF8047B704700BF95
:102FC0007409002080B584B000AF7860FFF7EEFF91
:102FD000B8607B68FB60FB68B3F1FF3F05D00A4B2C
:102FE0001B781A46FB681344FB6000BFFFF7DEFF47
:102FF0000246BB68D31AFA689A42F7D800BF00BFEE
:103000001037BD4680BD00BF1C00002080B584B0D5
:1030100000AF78600023FB737B68002B01D1012394
:1030200033E07B681B6C002B09D17868FFF78EFCBE
:103030007B6800225A647B68002283F83C207B680E
:103040001B6C03F01003002B18D17B681B6C23F45E
:10305000885323F0020343F002027B681A64786805
:1030600000F0BAFA7B6800225A647B681B6C23F07C
:10307000030343F001027B681A6401E00123FB7340
:103080007B68002283F83C20FB7B18461037BD4646
:1030900080BD000080B485B000AF78600023BB60C5
:1030A0007B6893F83C30012B01D1022397E07B68C9
:1030B000012283F83C207B681B689B6803F00103B6
:1030C000012B18D07B681B689A687B681B6842F0EC
:1030D00001029A60454B1B68454AA2FB03239A0CE8
:1030E00013465B001344BB6002E0BB68013BBB605E
:1030F000BB68002BF9D17B681B689B6803F0010358
:10310000012B5FD17B681B6C23F4E06323F0010388
:1031100043F480727B681A647B681B685B6803F405
:103120008063002B07D07B681B6C23F4405343F46F
:1031300080527B681A647B681B6C03F48053B3F580
:10314000805F06D17B685B6C23F006027B685A6463
:1031500002E07B6800225A647B68002283F83C20EE
:10316000244BFB607B681B686FF022021A60FB68CF
:103170005B6803F01F03002B0FD17B681B689B6803
:1031800003F04053002B29D17B681B689A687B6849
:103190001B6842F080429A6020E07B681B68164AF8
:1031A00093421BD17B681B689B6803F04053002B44
:1031B00014D17B681B689A687B681B6842F0804268
:1031C0009A600BE07B681B6C43F010027B681A640A
:1031D0007B685B6C43F001027B685A6400231846ED
:1031E0001437BD465DF8047B704700BF1400002013
:1031F00083DE1B43002301400020014080B483B0E4
:1032000000AF78607B6893F83C30012B01D102233A
:1032100021E07B68012283F83C207B681B689A6868
:103220007B681B6822F001029A607B681B689B68C0
:1032300003F00103002B09D17B681B6C23F4885336
:1032400023F0010343F001027B681A647B680022CB
:1032500083F83C20002318460C37BD465DF8047BFC
:10326000704780B584B000AF786039600023FB60A0
:103270007B681B689B6803F48063B3F5806F13D190
:103280007B681B689B6803F48073B3F5807F0BD168
:103290007B681B6C43F020027B681A647B68002209
:1032A00083F83C20012363E0FFF780FEF86021E013
:1032B0003B68B3F1FF3F1DD03B68002B07D0FFF701
:1032C00075FE0246FB68D31A3A689A4212D27B68AE
:1032D0001B681B6803F00203022B0BD07B681B6C7E
:1032E00043F004027B681A647B68002283F83C2068
:1032F00003233DE07B681B681B6803F00203022B7D
:10330000D6D17B681B686FF012021A607B681B6C59
:1033100043F400727B681A647B681B689B6803F047
:103320004053002B23D17B681B7E002B1FD17B6871
:103330001B68DB6A03F47003002B06D07B681B68F4
:103340009B6803F48063002B11D17B681B6C23F412
:1033500080727B681A647B681B6C03F48053002BBB
:1033600005D17B681B6C43F001027B681A64002363
:1033700018461037BD4680BD80B483B000AF78607A
:103380007B681B68DB6C18460C37BD465DF8047B18
:103390007047000080B485B000AF786039600023CA
:1033A000BB607B6893F83C30012B01D1022305E11F
:1033B0007B68012283F83C203B681B68092B25D9D8
:1033C0007B681B68D9683B681B689BB21A4613462A
:1033D0005B0013441E3B072202FA03F3DA437B68C7
:1033E0001B680A40DA607B681B68D9683B689A688A
:1033F0003B681B689BB2184603465B0003441E3BB8
:103400009A407B681B680A43DA6022E07B681B688D
:1034100019693B681B689BB21A4613465B0013444C
:10342000072202FA03F3DA437B681B680A401A6139
:103430007B681B6819693B689A683B681B689BB28C
:10344000184603465B0003449A407B681B680A43A6
:103450001A613B685B68062B24D87B681B68596B34
:103460003B685A6813469B001344053B1F2202FA2F
:1034700003F3DA437B681B680A405A637B681B6866
:10348000596B3B681B689BB218463B685A681346E9
:103490009B001344053B00FA03F27B681B680A4358
:1034A0005A634CE03B685B680C2B24D87B681B6834
:1034B000196B3B685A6813469B001344233B1F2239
:1034C00002FA03F3DA437B681B680A401A637B68DD
:1034D0001B68196B3B681B689BB218463B685A68AF
:1034E00013469B001344233B00FA03F27B681B68DE
:1034F0000A431A6323E07B681B68D96A3B685A68F1
:1035000013469B001344413B1F2202FA03F3DA43A4
:103510007B681B680A40DA627B681B68D96A3B6873
:103520001B689BB218463B685A6813469B001344BD
:10353000413B00FA03F27B681B680A43DA62224BC4
:10354000FB607B681B68214A934209D13B681B687A
:10355000122B05D1FB685B6843F48002FB685A605C
:103560007B681B68194A934223D13B681B68102B68
:1035700003D03B681B68112B1BD1FB685B6843F4CD
:103580000002FB685A603B681B68102B11D1104B7E
:103590001B68104AA2FB03239A0C13469B0013449A
:1035A0005B00BB6002E0BB68013BBB60BB68002BFB
:1035B000F9D17B68002283F83C2000231846143799
:1035C000BD465DF8047B70470023014000200140A8
:1035D0001400002083DE1B4380B485B000AF786008
:1035E000794BFB60FB685B6823F44032FB685A60F0
:1035F000FB685A687B685B681A43FB685A607B68A3
:103600001B685A687B681B6822F480725A607B686A
:103610001B6859687B681B691A027B681B680A4330
:103620005A607B681B685A687B681B6822F040728E
:103630005A607B681B6859687B689A687B681B685E
:103640000A435A607B681B689A687B681B6822F48F
:1036500000629A607B681B6899687B68DA687B689F
:103660001B680A439A607B689B6A584A934222D03F
:103670007B681B689A687B681B6822F070629A609E
:103680007B681B6899687B689A6A7B681B680A4339
:103690009A607B681B689A687B681B6822F04052BE
:1036A0009A607B681B6899687B68DA6A7B681B682C
:1036B0000A439A600FE07B681B689A687B681B6806
:1036C00022F070629A607B681B689A687B681B684E
:1036D00022F040529A607B681B689A687B681B687E
:1036E00022F002029A607B681B6899687B681B7EE7
:1036F0005A007B681B680A439A607B6893F8203005
:10370000002B1BD07B681B685A687B681B6842F4DF
:1037100000625A607B681B685A687B681B6822F4E9
:1037200060425A607B681B6859687B685B6A013B32
:103730005A037B681B680A435A6007E07B681B6872
:103740005A687B681B6822F400625A607B681B68B9
:10375000DA6A7B681B6822F47002DA627B681B6895
:10376000D96A7B68DB69013B1A057B681B680A43E1
:10377000DA627B681B689A687B681B6822F40072B7
:103780009A607B681B6899687B6893F830305A02AE
:103790007B681B680A439A607B681B689A687B6831
:1037A0001B6822F480629A607B681B6899687B685A
:1037B0005B699A027B681B680A439A6000BF1437F2
:1037C000BD465DF8047B7047002301400100000FF7
:1037D00080B485B000AF78607B6803F00703FB60BE
:1037E0000C4BDB68BB60BA684FF6FF031340BB604D
:1037F000FB681A02BB68134343F0BF6343F4003312
:10380000BB60044ABB68D36000BF1437BD465DF897
:10381000047B704700ED00E080B400AF044BDB6830
:103820001B0A03F007031846BD465DF8047B70478A
:1038300000ED00E080B483B000AF0346FB7197F960
:103840000730002B0BDBFB7903F01F02074997F9C8
:1038500007305B09012000FA02F241F8232000BF83
:103860000C37BD465DF8047B704700BF00E100E007
:1038700080B483B000AF03463960FB7197F907301D
:10388000002B0ADB3B68DAB20C4997F907301201CA
:10389000D2B20B4483F800230AE03B68DAB208494D
:1038A000FB7903F00F03043B1201D2B20B441A76EA
:1038B00000BF0C37BD465DF8047B704700E100E0B7
:1038C00000ED00E080B489B000AFF860B9607A60C4
:1038D000FB6803F00703FB61FB69C3F10703042BDB
:1038E00028BF0423BB61FB690433062B02D9FB69A3
:1038F000033B00E000237B614FF0FF32BB6902FA1B
:1039000003F3DA43BB681A407B699A404FF0FF31FA
:103910007B6901FA03F3D9437B680B4013431846D4
:103920002437BD465DF8047B7047000080B582B047
:1039300000AF78607B68013BB3F1807F01D3012346
:103940000FE00A4A7B68013B53600F214FF0FF30C4
:10395000FFF78EFF054B00229A60044B07221A6086
:10396000002318460837BD4680BD00BF10E000E0C8
:1039700080B582B000AF78607868FFF729FF00BF9C
:103980000837BD4680BD80B586B000AF0346B9603C
:103990007A60FB7300237B61FFF73EFF78617A68F2
:1039A000B9687869FFF78EFF024697F90F30114624
:1039B0001846FFF75DFF00BF1837BD4680BD80B5D4
:1039C00082B000AF0346FB7197F907301846FFF746
:1039D00031FF00BF0837BD4680BD80B582B000AF63
:1039E00078607868FFF7A2FF034618460837BD469F
:1039F00080BD80B584B000AF78607B689B6DFB6054
:103A0000FFF7D4FAB8607B6893F83530DBB2022B4D
:103A100008D07B6880225A657B68002283F83420B6
:103A2000012352E07B681B681A687B681B6822F0E0
:103A300016021A607B681B685A697B681B6822F053
:103A400080025A617B681B6C002B03D17B689B6CE6
:103A5000002B07D07B681B681A687B681B6822F004
:103A600008021A607B681B681A687B681B6822F072
:103A700001021A6013E0FFF799FA0246BB68D31AF5
:103A8000052B0CD97B6820225A657B68032283F8BA
:103A900035207B68002283F83420032315E07B68FF
:103AA0001B681B6803F00103002BE4D17B68DB6D0E
:103AB0003F229A40FB689A607B68012283F8352098
:103AC0007B68002283F83420002318461037BD4657
:103AD00080BD80B483B000AF78607B6893F83530E8
:103AE000DBB2022B04D07B6880225A6501230CE0F4
:103AF0007B68052283F835207B681B681A687B6821
:103B00001B6822F001021A60002318460C37BD46DC
:103B10005DF8047B7047000080B489B000AF786026
:103B2000396000237B6100233B610023BB610023DC
:103B3000FB6159E10122FB6902FA03F37B613B68F7
:103B40001B687A6913403B613A697B699A4240F08D
:103B500048813B685B6803F00303012B05D03B6899
:103B60005B6803F00303022B30D17B689B68BB6169
:103B7000FB695B00032202FA03F3DB43BA691340DB
:103B8000BB613B68DA68FB695B0002FA03F3BA6960
:103B90001343BB617B68BA699A607B685B68BB61F1
:103BA0000122FB6902FA03F3DB43BA691340BB61EC
:103BB0003B685B681B0903F00102FB6902FA03F32F
:103BC000BA691343BB617B68BA695A603B685B683A
:103BD00003F00303032B17D07B68DB68BB61FB6931
:103BE0005B00032202FA03F3DB43BA691340BB61B3
:103BF0003B689A68FB695B0002FA03F3BA691343F6
:103C0000BB617B68BA69DA603B685B6803F00303F9
:103C1000022B23D1FB69DA087B68083253F8223083
:103C2000BB61FB6903F007039B000F2202FA03F359
:103C3000DB43BA691340BB613B681A69FB6903F057
:103C400007039B0002FA03F3BA691343BB61FB69E4
:103C5000DA087B680832B96943F822107B681B6870
:103C6000BB61FB695B00032202FA03F3DB43BA6921
:103C70001340BB613B685B6803F00302FB695B00B8
:103C800002FA03F3BA691343BB617B68BA691A602D
:103C90003B685B6803F44033002B00F0A2800023F4
:103CA000FB60574B5B6C564A43F480435364544B60
:103CB0005B6C03F48043FB60FB68524AFB699B0822
:103CC000023352F82330BB61FB6903F003039B000E
:103CD0000F2202FA03F3DB43BA691340BB617B682E
:103CE000494A934219D07B68484A934213D07B6873
:103CF000474A93420DD07B68464A934207D07B687F
:103D0000454A934201D1042308E0072306E0032338
:103D100004E0022302E0012300E00023FA6902F03C
:103D2000030292009340BA691343BB613549FB69B2
:103D30009B080233BA6941F82320384B9B68BB616A
:103D40003B69DB43BA691340BB613B685B6803F4C2
:103D50008013002B03D0BA693B691343BB612F4A20
:103D6000BB6993602D4BDB68BB613B69DB43BA6980
:103D70001340BB613B685B6803F40013002B03D066
:103D8000BA693B691343BB61244ABB69D360234BC7
:103D90005B68BB613B69DB43BA691340BB613B684D
:103DA0005B6803F40033002B03D0BA693B6913430B
:103DB000BB611A4ABB695360184B1B68BB613B6906
:103DC000DB43BA691340BB613B685B6803F4803333
:103DD000002B03D0BA693B691343BB610F4ABB692F
:103DE0001360FB690133FB61FB690F2B7FF6A2AE09
:103DF00000BF00BF2437BD465DF8047B704700BF9D
:103E00000038024000380140000002400004024037
:103E100000080240000C024000100240003C01403B
:103E200080B485B000AF78600B467B807B681A69F0
:103E30007B881340002B02D00123FB7301E0002399
:103E4000FB73FB7B18461437BD465DF8047B704757
:103E500080B483B000AF78600B467B8013467B70E4
:103E60007B78002B03D07A887B689A6103E07B889B
:103E70001A047B689A6100BF0C37BD465DF8047B6D
:103E80007047000080B582B000AF0346FB80084B4E
:103E90005A69FB881340002B06D0054AFB88536102
:103EA000FB881846FDF762FE00BF0837BD4680BD9F
:103EB000003C014080B584B000AF78607B68002B87
:103EC00001D101232BE17B6893F83D30DBB2002B5D
:103ED00006D17B68002283F83C207868FEF77AFDE3
:103EE0007B68242283F83D207B681B681A687B6806
:103EF0001B6822F001021A607B681B681A687B68E5
:103F00001B6842F400421A607B681B681A687B6871
:103F10001B6822F400421A6001F058F8F8607B68D0
:103F20005B68814A934207D8FB68804A934294BFFA
:103F300001230023DBB206E0FB687D4A934294BF75
:103F400001230023DBB2002B01D00123E7E0FB6853
:103F5000784AA2FB03239B0CBB607B681B685B68F1
:103F600023F03F017B681B68BA680A435A607B688C
:103F70001B681B6A23F03F017B685B686A4A9342B7
:103F800002D8BB68013309E0BB684FF4967202FBAC
:103F900003F3694AA2FB03239B0901337A68126881
:103FA0000B4313627B681B68DB6923F44F4222F0EA
:103FB000FF027B685B685C498B4219D8FB68591E1D
:103FC0007B685B685B00B1FBF3F3591C40F6FC7344
:103FD0000B40002B0AD0FB68591E7B685B685B00B6
:103FE000B1FBF3F30133C3F30B0351E004234FE0C0
:103FF0007B689B68002B11D1FB68581E7B68596851
:104000000B465B000B44B0FBF3F30133C3F30B032C
:10401000002B0CBF01230023DBB212E0FB68581E0B
:104020007B6859680B469B000B4499000B44B0FB1E
:10403000F3F30133C3F30B03002B0CBF0123002365
:10404000DBB2002B01D0012322E07B689B68002BB0
:104050000ED1FB68581E7B6859680B465B000B4409
:10406000B0FBF3F30133C3F30B0343F400430FE05E
:10407000FB68581E7B6859680B469B000B449900EF
:104080000B44B0FBF3F30133C3F30B0343F440439E
:10409000796809681343CB617B681B681B6823F050
:1040A000C0017B68DA697B681B6A1A437B681B68FE
:1040B0000A431A607B681B689B6823F4034323F060
:1040C000FF037A6811697A68D26811437A681268C6
:1040D0000B4393607B681B68DB6823F0FF017B6800
:1040E0005A697B689B691A437B681B680A43DA60DC
:1040F0007B681B681A687B681B6842F001021A60C3
:104100007B6800221A647B68202283F83D207B684C
:1041100000221A637B68002283F83E2000231846A1
:104120001037BD4680BD00BFA08601007F841E0001
:10413000FF083D0083DE1B43D34D621080B588B07D
:1041400002AFF860084611461A4603467B810B46CB
:104150003B811346FB80FEF729FF7861FB6893F8EB
:104160003D30DBB2202B40F0D9807B6900931923CE
:1041700001226D49F86800F071F90346002B01D067
:104180000223CCE0FB6893F83C30012B01D10223E1
:10419000C5E0FB68012283F83C20FB681B681B68B4
:1041A00003F00103012B07D0FB681B681A68FB684A
:1041B0001B6842F001021A60FB681B681A68FB6802
:1041C0001B6822F400621A60FB68212283F83D20FC
:1041D000FB68402283F83E20FB6800221A64FB68DB
:1041E0003A6A5A62FB68BA8C5A85FB685B8D9AB250
:1041F000FB681A85FB684D4ADA62F8883A89798942
:104200007B690193BB6A00930346F86800F090F85D
:104210000346002B52D0012381E07A69B96AF8681D
:1042200000F0F2F90346002B0DD0FB681B6C042B49
:1042300007D1FB681B681A68FB681B6842F40072B0
:104240001A6001236BE0FB685B6A1A78FB681B68E5
:104250001A61FB685B6A5A1CFB685A62FB681B8D1B
:10426000013B9AB2FB681A85FB685B8D9BB2013BF0
:104270009AB2FB685A85FB681B685B6903F004030C
:10428000042B1BD1FB681B8D002B17D0FB685B6ACE
:104290001A78FB681B681A61FB685B6A5A1CFB682A
:1042A0005A62FB681B8D013B9AB2FB681A85FB685A
:1042B0005B8D9BB2013B9AB2FB685A85FB681B8DF4
:1042C000002BAAD17A69B96AF86800F0DEF90346D2
:1042D000002B0DD0FB681B6C042B07D1FB681B68FF
:1042E0001A68FB681B6842F400721A60012316E02A
:1042F000FB681B681A68FB681B6842F400721A604E
:10430000FB68202283F83D20FB68002283F83E20D2
:10431000FB68002283F83C20002300E002231846BB
:104320001837BD4680BD00BF020010000000FFFF2F
:1043300080B588B002AFF860084611461A460346B9
:104340007B810B463B811346FB80FB681B681A6828
:10435000FB681B6842F480721A607B6A00933B6AB8
:1043600000224FF00111F86800F078F80346002BA6
:104370000DD0FB681B681B6803F48073B3F5807F66
:1043800003D1FB684FF400721A6403235FE07B895A
:10439000DBB21A46FB681B6802F0FE021A617B6AF8
:1043A0003A6A2D49F86800F0B0F80346002B01D0B6
:1043B00001234CE000237B61FB681B685B697B6128
:1043C000FB681B689B697B617B697A6A396AF8685C
:1043D00000F01AF90346002B0DD0FB681B6C042B70
:1043E00007D1FB681B681A68FB681B6842F40072FF
:1043F0001A6001232BE0FB88012B05D13B89DAB23F
:10440000FB681B681A6121E03B891B0A9BB2DAB288
:10441000FB681B681A617A6A396AF86800F0F4F878
:104420000346002B0DD0FB681B6C042B07D1FB68E7
:104430001B681A68FB681B6842F400721A6001234B
:1044400005E03B89DAB2FB681B681A610023184655
:104450001837BD4680BD00BF0200010080B584B0A2
:1044600000AFF860B9603B601346FB7125E03B6824
:10447000B3F1FF3F21D0FEF799FD0246BB69D31A85
:104480003A689A4202D33B68002B16D1FB6800229F
:104490001A63FB68202283F83D20FB68002283F822
:1044A0003E20FB681B6C43F02002FB681A64FB682B
:1044B000002283F83C20012323E0BB681B0CDBB205
:1044C000012B0DD1FB681B685B69DA43BB681340A5
:1044D0009BB2002B0CBF01230023DBB21A460CE079
:1044E000FB681B689B69DA43BB6813409BB2002BD7
:1044F0000CBF01230023DBB21A46FB799A42B6D0E7
:10450000002318461037BD4680BD80B584B000AF8B
:10451000F860B9607A603B6051E0FB681B685B69DA
:1045200003F48063B3F5806F23D1FB681B681A68BE
:10453000FB681B6842F400721A60FB681B686FF42A
:1045400080625A61FB6800221A63FB68202283F8AC
:104550003D20FB68002283F83E20FB681B6C43F083
:104560000402FB681A64FB68002283F83C200123E4
:1045700046E07B68B3F1FF3F21D0FEF717FD02460E
:104580003B68D31A7A689A4202D37B68002B16D113
:10459000FB6800221A63FB68202283F83D20FB6839
:1045A000002283F83E20FB681B6C43F02002FB686E
:1045B0001A64FB68002283F83C20012320E0BB68DA
:1045C0001B0CDBB2012B0CD1FB681B685B69DA4367
:1045D000BB6813409BB2002B14BF01230023DBB246
:1045E0000BE0FB681B689B69DA43BB6813409BB216
:1045F000002B14BF01230023DBB2002B8DD100233D
:1046000018461037BD4680BD80B584B000AFF86055
:10461000B9607A602DE0F86800F078F80346002B66
:1046200001D001232DE0BB68B3F1FF3F21D0FEF79D
:10463000BDFC02467B68D31ABA689A4202D3BB68B3
:10464000002B16D1FB6800221A63FB68202283F836
:104650003D20FB68002283F83E20FB681B6C43F082
:104660002002FB681A64FB68002283F83C200123C7
:1046700007E0FB681B685B6903F08003802BCAD1ED
:10468000002318461037BD4680BD80B584B000AF0A
:10469000F860B9607A602DE0F86800F037F80346FA
:1046A000002B01D001232DE0BB68B3F1FF3F21D0E7
:1046B000FEF77CFC02467B68D31ABA689A4202D3A2
:1046C000BB68002B16D1FB6800221A63FB6820220E
:1046D00083F83D20FB68002283F83E20FB681B6CBA
:1046E00043F02002FB681A64FB68002283F83C2038
:1046F000012307E0FB681B685B6903F00403042BDC
:10470000CAD1002318461037BD4680BD80B483B09F
:1047100000AF78607B681B685B6903F48063B3F566
:10472000806F1BD17B681B686FF480625A617B6865
:1047300000221A637B68202283F83D207B680022D8
:1047400083F83E207B681B6C43F004027B681A648C
:104750007B68002283F83C20012300E000231846F8
:104760000C37BD465DF8047B7047000080B586B00D
:1047700000AF78607B68002B01D1012367E27B6882
:104780001B6803F00103002B75D0884B9B6803F076
:104790000C03042B0CD0854B9B6803F00C03082BF7
:1047A00012D1824B5B6803F48003B3F5800F0BD109
:1047B0007E4B1B6803F40033002B5BD07B685B6887
:1047C000002B57D1012342E27B685B68B3F5803F41
:1047D00006D1764B1B68754A43F4803313601DE0A5
:1047E0007B685B68B3F5A02F0CD1704B1B686F4AD8
:1047F00043F4802313606D4B1B686C4A43F4803391
:1048000013600BE0694B1B68684A23F48033136024
:10481000664B1B68654A23F4802313607B685B68E2
:10482000002B13D0FEF7C2FB386108E0FEF7BEFB99
:1048300002463B69D31A642B01D9032307E25B4B81
:104840001B6803F40033002BF0D014E0FEF7AEFB3E
:10485000386108E0FEF7AAFB02463B69D31A642BD5
:1048600001D90323F3E1514B1B6803F40033002B00
:10487000F0D100E000BF7B681B6803F00203002B4F
:1048800063D04A4B9B6803F00C03002B0BD0474BC3
:104890009B6803F00C03082B1CD1444B5B6803F4AA
:1048A0008003002B16D1414B1B6803F00203002B41
:1048B00005D07B68DB68012B01D00123C7E13B4BAE
:1048C0001B6823F0F8027B681B69DB003749134340
:1048D0000B603AE07B68DB68002B20D0344B012270
:1048E0001A60FEF763FB386108E0FEF75FFB0246E3
:1048F0003B69D31A022B01D90323A8E12B4B1B6878
:1049000003F00203002BF0D0284B1B6823F0F802C1
:104910007B681B69DB00254913430B6015E0244BC2
:1049200000221A60FEF742FB386108E0FEF73EFB0A
:1049300002463B69D31A022B01D9032387E11B4BA3
:104940001B6803F00203002BF0D17B681B6803F0A7
:104950000803002B36D07B685B69002B16D0154B03
:1049600001221A60FEF722FB386108E0FEF71EFB09
:1049700002463B69D31A022B01D9032367E10B4B93
:104980005B6F03F00203002BF0D01BE0094B002209
:104990001A60FEF70BFB38610EE0FEF707FB0246DC
:1049A0003B69D31A022B07D9032350E10038024098
:1049B00000004742800E4742884B5B6F03F00203C2
:1049C000002BEAD17B681B6803F00403002B00F086
:1049D00097800023FB75814B1B6C03F08053002BE9
:1049E0000FD10023BB607D4B1B6C7C4A43F080538E
:1049F00013647A4B1B6C03F08053BB60BB680123CC
:104A0000FB75774B1B6803F48073002B18D1744B34
:104A10001B68734A43F480731360FEF7C7FA38616A
:104A200008E0FEF7C3FA02463B69D31A022B01D90C
:104A300003230CE16A4B1B6803F48073002BF0D056
:104A40007B689B68012B06D1644B1B6F634A43F064
:104A5000010313671CE07B689B68052B0CD15F4B3F
:104A60001B6F5E4A43F0040313675C4B1B6F5B4A8A
:104A700043F0010313670BE0584B1B6F574A23F0B9
:104A800001031367554B1B6F544A23F0040313674C
:104A90007B689B68002B15D0FEF788FA38610AE026
:104AA000FEF784FA02463B69D31A41F288329342F8
:104AB00001D90323CBE0494B1B6F03F00203002B0A
:104AC000EED014E0FEF772FA38610AE0FEF76EFAF3
:104AD00002463B69D31A41F28832934201D903233B
:104AE000B5E03E4B1B6F03F00203002BEED1FB7DC4
:104AF000012B05D1394B1B6C384A23F080531364CA
:104B00007B689B69002B00F0A180344B9B6803F00D
:104B10000C03082B5CD07B689B69022B41D1314B85
:104B200000221A60FEF742FA386108E0FEF73EFA0A
:104B300002463B69D31A022B01D9032387E0274B96
:104B40001B6803F00073002BF0D17B68DA697B6887
:104B50001B6A1A437B685B6A9B011A437B689B6AEA
:104B60005B08013B1B041A437B68DB6A1B061B497D
:104B700013434B601B4B01221A60FEF717FA386192
:104B800008E0FEF713FA02463B69D31A022B01D95B
:104B900003235CE0114B1B6803F00073002BF0D083
:104BA00054E0104B00221A60FEF700FA386108E06A
:104BB000FEF7FCF902463B69D31A022B01D9032305
:104BC00045E0064B1B6803F00073002BF0D13DE07D
:104BD0007B689B69012B07D1012338E00038024034
:104BE00000700040600047421B4B5B68FB607B68C5
:104BF0009B69012B28D0FB6803F480027B68DB698A
:104C00009A4221D1FB6803F03F027B681B6A9A42FB
:104C10001AD1FA6847F6C07313407A68526A920153
:104C2000934211D1FB6803F440327B689B6A5B08B6
:104C3000013B1B049A4207D1FB6803F070627B685A
:104C4000DB6A1B069A4201D0012300E000231846CC
:104C50001837BD4680BD00BF0038024080B584B023
:104C600000AF786039607B68002B01D10123CCE074
:104C7000684B1B6803F007033A689A420CD9654BEE
:104C80003A68D2B21A70634B1B6803F007033A68A4
:104C90009A4201D00123B8E07B681B6803F002034D
:104CA000002B20D07B681B6803F00403002B05D089
:104CB000594B9B68584A43F4E05393607B681B68E8
:104CC00003F00803002B05D0534B9B68524A43F472
:104CD00060439360504B9B6823F0F0027B689B68B5
:104CE0004D4913438B607B681B6803F00103002B65
:104CF00044D07B685B68012B07D1474B1B6803F4EA
:104D00000033002B19D101237FE07B685B68022B05
:104D100003D07B685B68032B07D13F4B1B6803F014
:104D20000073002B09D101236FE03B4B1B6803F09C
:104D30000203002B01D1012367E0374B9B6823F06E
:104D400003027B685B68344913438B60FEF72EF9DE
:104D5000F8600AE0FEF72AF90246FB68D31A41F22E
:104D60008832934201D903234FE02B4B9B6803F019
:104D70000C027B685B689B009A42EBD1254B1B6859
:104D800003F007033A689A420CD2224B3A68D2B237
:104D90001A70204B1B6803F007033A689A4201D04F
:104DA000012332E07B681B6803F00403002B08D06A
:104DB000194B9B6823F4E0527B68DB681649134368
:104DC0008B607B681B6803F00803002B09D0124B33
:104DD0009B6823F460427B681B69DB000E49134328
:104DE0008B6000F021F802460B4B9B681B0903F017
:104DF0000F030A49CB5C22FA03F3094A1360094BFB
:104E00001B681846FEF78EF8002318461037BD467B
:104E100080BD00BF003C024000380240D4AC000816
:104E200014000020180000202DE9B04F90B000AF12
:104E300000237B630023FB6300233B630023BB63EE
:104E4000594B9B6803F00C03082B0DD0082B00F284
:104E5000A180002B02D0042B03D09BE0534BBB63FB
:104E60009BE0534BBB6398E04F4B5B6803F03F0301
:104E70007B634D4B5B6803F48003002B28D04A4BC7
:104E80005B689B0900223B627A623B6AC3F30800BD
:104E90000021474B03FB01F2002300FB03F3134403
:104EA000434AA0FB0212FA620A46BA62FA6A134443
:104EB000FB627B6B0022BB61FA61D7E90623D7E96D
:104EC0000A01FBF7C9FE02460B461346FB6353E09B
:104ED000354B5B689B0900223B617A613B69C3F3F8
:104EE000080A4FF0000B52465B464FF000004FF0AF
:104EF0000001590141EAD261500102460B46B2EB72
:104F00000A0863EB0B094FF000024FF000034FEA71
:104F1000891343EA98634FEA8812B2EB080463EB03
:104F200009054FF000024FF00003EB0043EA547311
:104F3000E20014461D4614EB0A033B6045EB0B03ED
:104F40007B604FF000024FF00003D7E9004529468F
:104F50008B02214643EA915321468A0210461946A4
:104F60007B6B0022BB60FA60D7E90223FBF774FE7B
:104F700002460B461346FB630B4B5B681B0C03F0AE
:104F8000030301335B003B63FA6B3B6BB2FBF3F350
:104F9000BB6302E0054BBB6300BFBB6B18464037E9
:104FA000BD46BDE8B08F00BF003802400024F400C9
:104FB00040787D0180B400AF034B1B681846BD46A6
:104FC0005DF8047B704700BF1400002080B500AF7F
:104FD000FFF7F0FF0246054B9B689B0A03F00703AF
:104FE0000349CB5C22FA03F3184680BD0038024027
:104FF000E4AC000880B500AFFFF7DCFF0246054BCC
:105000009B685B0B03F007030349CB5C22FA03F3B5
:10501000184680BD00380240E4AC000880B582B07C
:1050200000AF78607B68002B01D1012341E07B68F1
:1050300093F83D30DBB2002B06D17B68002283F869
:105040003C207868FDF70EFD7B68022283F83D2046
:105050007B681A687B6804331946104600F010FB21
:105060007B68012283F846207B68012283F83E207A
:105070007B68012283F83F207B68012283F840206F
:105080007B68012283F841207B68012283F842205B
:105090007B68012283F843207B68012283F8442047
:1050A0007B68012283F845207B68012283F83D203C
:1050B000002318460837BD4680BD000080B485B087
:1050C00000AF78607B6893F83D30DBB2012B01D0F4
:1050D00001233CE07B68022283F83D207B681B684B
:1050E0001E4A934218D07B681B68B3F1804F13D0DF
:1050F0007B681B681A4A93420ED07B681B68194A6A
:10510000934209D07B681B68174A934204D07B689E
:105110001B68164A934211D17B681B689B6803F099
:105120000703FB60FB68062B10D07B681B681A68BE
:105130007B681B6842F001021A6007E07B681B680D
:105140001A687B681B6842F001021A600023184647
:105150001437BD465DF8047B704700BF0000014076
:105160000004004000080040000C004000400140E6
:1051700080B485B000AF78607B6893F83D30DBB2D7
:10518000012B01D0012344E07B68022283F83D20FB
:105190007B681B68DA687B681B6842F00102DA6092
:1051A0007B681B681E4A934218D07B681B68B3F16A
:1051B000804F13D07B681B681A4A93420ED07B68DD
:1051C0001B68194A934209D07B681B68174A9342AF
:1051D00004D07B681B68164A934211D17B681B6818
:1051E0009B6803F00703FB60FB68062B10D07B680D
:1051F0001B681A687B681B6842F001021A6007E0AE
:105200007B681B681A687B681B6842F001021A60A1
:10521000002318461437BD465DF8047B704700BF75
:10522000000001400004004000080040000C004065
:105230000040014080B483B000AF78607B681B6899
:10524000DA687B681B6822F00102DA607B681B6801
:105250001A6A41F211131340002B0FD17B681B68AF
:105260001A6A40F244431340002B07D17B681B6845
:105270001A687B681B6822F001021A607B680122B1
:1052800083F83D20002318460C37BD465DF8047BAB
:10529000704780B582B000AF78607B681B681B697F
:1052A00003F00203022B22D17B681B68DB6803F04A
:1052B0000203022B1BD17B681B686FF002021A618C
:1052C0007B6801221A777B681B689B6903F00303E4
:1052D000002B03D0786800F0B5F905E0786800F09D
:1052E000A7F9786800F0B8F97B6800221A777B6824
:1052F0001B681B6903F00403042B22D17B681B6825
:10530000DB6803F00403042B1BD17B681B686FF080
:1053100004021A617B6802221A777B681B689B690A
:1053200003F44073002B03D0786800F08BF905E09C
:10533000786800F07DF9786800F08EF97B680022CB
:105340001A777B681B681B6903F00803082B22D1BE
:105350007B681B68DB6803F00803082B1BD17B68A4
:105360001B686FF008021A617B6804221A777B6859
:105370001B68DB6903F00303002B03D0786800F09F
:1053800061F905E0786800F053F9786800F064F995
:105390007B6800221A777B681B681B6903F0100387
:1053A000102B22D17B681B68DB6803F01003102BE5
:1053B0001BD17B681B686FF010021A617B680822A2
:1053C0001A777B681B68DB6903F44073002B03D0FA
:1053D000786800F037F905E0786800F029F9786816
:1053E00000F03AF97B6800221A777B681B681B691A
:1053F00003F00103012B0ED17B681B68DB6803F00F
:105400000103012B07D17B681B686FF001021A6151
:105410007868FCF7A5FD7B681B681B6903F08003B7
:10542000802B0ED17B681B68DB6803F08003802B28
:1054300007D17B681B686FF080021A61786800F002
:10544000B1FA7B681B681B6903F04003402B0ED147
:105450007B681B68DB6803F04003402B07D17B6847
:105460001B686FF040021A61786800F0FFF87B68F3
:105470001B681B6903F02003202B0ED17B681B687F
:10548000DB6803F02003202B07D17B681B686FF0DB
:1054900020021A61786800F07BFA00BF0837BD4629
:1054A00080BD80B584B000AF786039600023FB73A5
:1054B0007B6893F83C30012B01D10223B4E07B6878
:1054C000012283F83C207B68022283F83D207B6820
:1054D0001B689B68BB60BB6823F07703BB60BB683D
:1054E00023F47F43BB607B681B68BA689A603B68A3
:1054F0001B68B3F5005F3ED0B3F5005F00F2878014
:10550000B3F5805F00F08680B3F5805F7FD8702BA5
:105510001AD0702B7BD8602B50D0602B77D8502BB3
:105520003CD0502B73D8402B58D0402B6FD8302B09
:1055300064D0302B6BD8202B60D0202B67D8002B69
:105540005CD0102B5AD062E07B6818683B68996881
:105550003B685A683B68DB6800F08CF97B681B6825
:105560009B68BB60BB6843F07703BB607B681B68CC
:10557000BA689A604FE07B6818683B6899683B6836
:105580005A683B68DB6800F075F97B681B689A68AD
:105590007B681B6842F480429A603CE07B68186834
:1055A0003B6859683B68DB681A4600F0E9F87B689D
:1055B0001B685021184600F042F92CE07B681868FF
:1055C0003B6859683B68DB681A4600F008F97B685D
:1055D0001B686021184600F032F91CE07B681868EF
:1055E0003B6859683B68DB681A4600F0C9F87B687D
:1055F0001B684021184600F022F90CE07B681A680D
:105600003B681B681946104600F019F903E00123B6
:10561000FB7300E000BF7B68012283F83D207B68BC
:10562000002283F83C20FB7B18461037BD4680BD26
:1056300080B483B000AF786000BF0C37BD465DF822
:10564000047B704780B483B000AF786000BF0C3734
:10565000BD465DF8047B704780B483B000AF7860CE
:1056600000BF0C37BD465DF8047B704780B483B043
:1056700000AF786000BF0C37BD465DF8047B704713
:1056800080B485B000AF786039607B681B68FB60D0
:105690007B68344A93420FD07B68B3F1804F0BD0C4
:1056A0007B68314A934207D07B68304A934203D0EB
:1056B0007B682F4A934208D1FB6823F07003FB609C
:1056C0003B685B68FA681343FB607B68254A93423A
:1056D0001BD07B68B3F1804F17D07B68224A93427E
:1056E00013D07B68214A93420FD07B68204A9342B3
:1056F0000BD07B681F4A934207D07B681E4A9342B7
:1057000003D07B681D4A934208D1FB6823F44073A1
:10571000FB603B68DB68FA681343FB60FB6823F0BF
:1057200080023B685B691343FB607B68FA681A6020
:105730003B689A687B68DA623B681A687B689A62A1
:105740007B68084A934203D13B681A697B681A63F5
:105750007B6801225A6100BF1437BD465DF8047BA7
:10576000704700BF000001400004004000080040F6
:10577000000C00400040014000440140004801404E
:1057800080B487B000AFF860B9607A60FB681B6ACC
:105790007B61FB681B6A23F00102FB681A62FB68ED
:1057A0009B693B613B6923F0F0033B617B681B0114
:1057B0003A6913433B617B6923F00A037B617A6991
:1057C000BB6813437B61FB683A699A61FB687A693D
:1057D0001A6200BF1C37BD465DF8047B704780B479
:1057E00087B000AFF860B9607A60FB681B6A23F08D
:1057F0001002FB681A62FB689B697B61FB681B6A8D
:105800003B617B6923F470437B617B681B037A698E
:1058100013437B613B6923F0A0033B61BB681B0121
:105820003A6913433B61FB687A699A61FB683A699C
:105830001A6200BF1C37BD465DF8047B704780B418
:1058400085B000AF786039607B689B68FB60FB685F
:1058500023F07003FB603A68FB68134343F00703CF
:10586000FB607B68FA689A6000BF1437BD465DF83C
:10587000047B704780B487B000AFF860B9607A608D
:105880003B60FB689B687B617B6923F47F437B61A2
:105890003B681A027B681A43BB6813437A69134357
:1058A0007B61FB687A699A6000BF1C37BD465DF872
:1058B000047B704780B485B000AF786039607B6846
:1058C00093F83C30012B01D1022350E07B68012288
:1058D00083F83C207B68022283F83D207B681B68AC
:1058E0005B68FB607B681B689B68BB60FB6823F0A0
:1058F0007003FB603B681B68FA681343FB607B68BE
:105900001B68FA685A607B681B681C4A934218D06F
:105910007B681B68B3F1804F13D07B681B68184A03
:1059200093420ED07B681B68164A934209D07B686D
:105930001B68154A934204D07B681B68134A934244
:105940000CD1BB6823F08003BB603B685B68BA681E
:105950001343BB607B681B68BA689A607B6801224E
:1059600083F83D207B68002283F83C200023184602
:105970001437BD465DF8047B704700BF000001404E
:105980000004004000080040000C004000400140BE
:1059900080B483B000AF786000BF0C37BD465DF8BF
:1059A000047B704780B483B000AF786000BF0C37D1
:1059B000BD465DF8047B704780B582B000AF78606B
:1059C0007B68002B01D101233FE07B6893F83D30D9
:1059D000DBB2002B06D17B68002283F83C2078687C
:1059E000FDF7B8F87B68242283F83D207B681B68AC
:1059F000DA687B681B6822F40052DA60786800F08D
:105A0000DFFD7B681B681A697B681B6822F4904283
:105A10001A617B681B685A697B681B6822F02A023E
:105A20005A617B681B68DA687B681B6842F4005225
:105A3000DA607B6800221A647B68202283F83D20AC
:105A40007B68202283F83E20002318460837BD4695
:105A500080BD80B58AB002AFF860B9603B60134684
:105A6000FB8000237B61FB6893F83D30DBB2202B89
:105A70007CD1BB68002B02D0FB88002B01D1012315
:105A800075E0FB6893F83C30012B01D102236EE0F6
:105A9000FB68012283F83C20FB6800221A64FB6843
:105AA000212283F83D20FDF781FA7861FB68FA88AE
:105AB0009A84FB68FA88DA84FB689B68B3F5805F98
:105AC00008D1FB681B69002B04D10023FB61BB6874
:105AD000BB6103E0BB68FB610023BB61FB68002284
